{
  "_format": "hh-sol-artifact-1",
  "contractName": "NFTMarketplace",
  "sourceName": "src/contracts/NFTMarketplace.sol",
  "abi": [
    {
      "inputs": [
        {
          "internalType": "uint256",
          "name": "_royaltyFee",
          "type": "uint256"
        }
      ],
      "stateMutability": "nonpayable",
      "type": "constructor"
    },
    {
      "anonymous": false,
      "inputs": [
        {
          "indexed": true,
          "internalType": "address",
          "name": "owner",
          "type": "address"
        },
        {
          "indexed": true,
          "internalType": "address",
          "name": "approved",
          "type": "address"
        },
        {
          "indexed": true,
          "internalType": "uint256",
          "name": "tokenId",
          "type": "uint256"
        }
      ],
      "name": "Approval",
      "type": "event"
    },
    {
      "anonymous": false,
      "inputs": [
        {
          "indexed": true,
          "internalType": "address",
          "name": "owner",
          "type": "address"
        },
        {
          "indexed": true,
          "internalType": "address",
          "name": "operator",
          "type": "address"
        },
        {
          "indexed": false,
          "internalType": "bool",
          "name": "approved",
          "type": "bool"
        }
      ],
      "name": "ApprovalForAll",
      "type": "event"
    },
    {
      "anonymous": false,
      "inputs": [
        {
          "indexed": true,
          "internalType": "uint256",
          "name": "tokenId",
          "type": "uint256"
        },
        {
          "indexed": false,
          "internalType": "address",
          "name": "seller",
          "type": "address"
        },
        {
          "indexed": false,
          "internalType": "address",
          "name": "owner",
          "type": "address"
        },
        {
          "indexed": false,
          "internalType": "uint256",
          "name": "price",
          "type": "uint256"
        },
        {
          "indexed": false,
          "internalType": "bool",
          "name": "sold",
          "type": "bool"
        }
      ],
      "name": "AuctionItemCreated",
      "type": "event"
    },
    {
      "anonymous": false,
      "inputs": [
        {
          "indexed": false,
          "internalType": "uint256",
          "name": "_fromTokenId",
          "type": "uint256"
        },
        {
          "indexed": false,
          "internalType": "uint256",
          "name": "_toTokenId",
          "type": "uint256"
        }
      ],
      "name": "BatchMetadataUpdate",
      "type": "event"
    },
    {
      "anonymous": false,
      "inputs": [
        {
          "indexed": false,
          "internalType": "uint256",
          "name": "_tokenId",
          "type": "uint256"
        }
      ],
      "name": "MetadataUpdate",
      "type": "event"
    },
    {
      "anonymous": false,
      "inputs": [
        {
          "indexed": true,
          "internalType": "address",
          "name": "previousOwner",
          "type": "address"
        },
        {
          "indexed": true,
          "internalType": "address",
          "name": "newOwner",
          "type": "address"
        }
      ],
      "name": "OwnershipTransferred",
      "type": "event"
    },
    {
      "anonymous": false,
      "inputs": [
        {
          "indexed": true,
          "internalType": "address",
          "name": "from",
          "type": "address"
        },
        {
          "indexed": true,
          "internalType": "address",
          "name": "to",
          "type": "address"
        },
        {
          "indexed": true,
          "internalType": "uint256",
          "name": "tokenId",
          "type": "uint256"
        }
      ],
      "name": "Transfer",
      "type": "event"
    },
    {
      "inputs": [
        {
          "internalType": "address",
          "name": "to",
          "type": "address"
        },
        {
          "internalType": "uint256",
          "name": "tokenId",
          "type": "uint256"
        }
      ],
      "name": "approve",
      "outputs": [],
      "stateMutability": "nonpayable",
      "type": "function"
    },
    {
      "inputs": [
        {
          "internalType": "address",
          "name": "owner",
          "type": "address"
        }
      ],
      "name": "balanceOf",
      "outputs": [
        {
          "internalType": "uint256",
          "name": "",
          "type": "uint256"
        }
      ],
      "stateMutability": "view",
      "type": "function"
    },
    {
      "inputs": [
        {
          "internalType": "uint256",
          "name": "tokenId",
          "type": "uint256"
        }
      ],
      "name": "buyAuctionedItem",
      "outputs": [],
      "stateMutability": "payable",
      "type": "function"
    },
    {
      "inputs": [
        {
          "internalType": "uint256",
          "name": "tokenId",
          "type": "uint256"
        },
        {
          "internalType": "uint256",
          "name": "price",
          "type": "uint256"
        }
      ],
      "name": "changePrice",
      "outputs": [],
      "stateMutability": "nonpayable",
      "type": "function"
    },
    {
      "inputs": [
        {
          "internalType": "uint256",
          "name": "tokenId",
          "type": "uint256"
        },
        {
          "internalType": "uint256",
          "name": "bid",
          "type": "uint256"
        }
      ],
      "name": "claimPrize",
      "outputs": [],
      "stateMutability": "nonpayable",
      "type": "function"
    },
    {
      "inputs": [
        {
          "internalType": "string",
          "name": "name",
          "type": "string"
        },
        {
          "internalType": "string",
          "name": "description",
          "type": "string"
        },
        {
          "internalType": "string",
          "name": "image",
          "type": "string"
        },
        {
          "internalType": "string",
          "name": "tokenURI",
          "type": "string"
        },
        {
          "internalType": "uint256",
          "name": "price",
          "type": "uint256"
        }
      ],
      "name": "createAuction",
      "outputs": [],
      "stateMutability": "payable",
      "type": "function"
    },
    {
      "inputs": [],
      "name": "getAllAuctions",
      "outputs": [
        {
          "components": [
            {
              "internalType": "string",
              "name": "name",
              "type": "string"
            },
            {
              "internalType": "string",
              "name": "description",
              "type": "string"
            },
            {
              "internalType": "string",
              "name": "image",
              "type": "string"
            },
            {
              "internalType": "uint256",
              "name": "tokenId",
              "type": "uint256"
            },
            {
              "internalType": "address",
              "name": "seller",
              "type": "address"
            },
            {
              "internalType": "address",
              "name": "owner",
              "type": "address"
            },
            {
              "internalType": "address",
              "name": "winner",
              "type": "address"
            },
            {
              "internalType": "uint256",
              "name": "price",
              "type": "uint256"
            },
            {
              "internalType": "bool",
              "name": "sold",
              "type": "bool"
            },
            {
              "internalType": "bool",
              "name": "live",
              "type": "bool"
            },
            {
              "internalType": "bool",
              "name": "biddable",
              "type": "bool"
            },
            {
              "internalType": "uint256",
              "name": "bids",
              "type": "uint256"
            },
            {
              "internalType": "uint256",
              "name": "duration",
              "type": "uint256"
            }
          ],
          "internalType": "struct NFTMarketplace.AuctionStruct[]",
          "name": "Auctions",
          "type": "tuple[]"
        }
      ],
      "stateMutability": "view",
      "type": "function"
    },
    {
      "inputs": [
        {
          "internalType": "uint256",
          "name": "tokenId",
          "type": "uint256"
        }
      ],
      "name": "getApproved",
      "outputs": [
        {
          "internalType": "address",
          "name": "",
          "type": "address"
        }
      ],
      "stateMutability": "view",
      "type": "function"
    },
    {
      "inputs": [
        {
          "internalType": "uint256",
          "name": "id",
          "type": "uint256"
        }
      ],
      "name": "getAuction",
      "outputs": [
        {
          "components": [
            {
              "internalType": "string",
              "name": "name",
              "type": "string"
            },
            {
              "internalType": "string",
              "name": "description",
              "type": "string"
            },
            {
              "internalType": "string",
              "name": "image",
              "type": "string"
            },
            {
              "internalType": "uint256",
              "name": "tokenId",
              "type": "uint256"
            },
            {
              "internalType": "address",
              "name": "seller",
              "type": "address"
            },
            {
              "internalType": "address",
              "name": "owner",
              "type": "address"
            },
            {
              "internalType": "address",
              "name": "winner",
              "type": "address"
            },
            {
              "internalType": "uint256",
              "name": "price",
              "type": "uint256"
            },
            {
              "internalType": "bool",
              "name": "sold",
              "type": "bool"
            },
            {
              "internalType": "bool",
              "name": "live",
              "type": "bool"
            },
            {
              "internalType": "bool",
              "name": "biddable",
              "type": "bool"
            },
            {
              "internalType": "uint256",
              "name": "bids",
              "type": "uint256"
            },
            {
              "internalType": "uint256",
              "name": "duration",
              "type": "uint256"
            }
          ],
          "internalType": "struct NFTMarketplace.AuctionStruct",
          "name": "",
          "type": "tuple"
        }
      ],
      "stateMutability": "view",
      "type": "function"
    },
    {
      "inputs": [
        {
          "internalType": "uint256",
          "name": "tokenId",
          "type": "uint256"
        }
      ],
      "name": "getBidders",
      "outputs": [
        {
          "components": [
            {
              "internalType": "address",
              "name": "bidder",
              "type": "address"
            },
            {
              "internalType": "uint256",
              "name": "price",
              "type": "uint256"
            },
            {
              "internalType": "uint256",
              "name": "timestamp",
              "type": "uint256"
            },
            {
              "internalType": "bool",
              "name": "refunded",
              "type": "bool"
            },
            {
              "internalType": "bool",
              "name": "won",
              "type": "bool"
            }
          ],
          "internalType": "struct NFTMarketplace.BidderStruct[]",
          "name": "",
          "type": "tuple[]"
        }
      ],
      "stateMutability": "view",
      "type": "function"
    },
    {
      "inputs": [],
      "name": "getListingPrice",
      "outputs": [
        {
          "internalType": "uint256",
          "name": "",
          "type": "uint256"
        }
      ],
      "stateMutability": "view",
      "type": "function"
    },
    {
      "inputs": [],
      "name": "getLiveAuctions",
      "outputs": [
        {
          "components": [
            {
              "internalType": "string",
              "name": "name",
              "type": "string"
            },
            {
              "internalType": "string",
              "name": "description",
              "type": "string"
            },
            {
              "internalType": "string",
              "name": "image",
              "type": "string"
            },
            {
              "internalType": "uint256",
              "name": "tokenId",
              "type": "uint256"
            },
            {
              "internalType": "address",
              "name": "seller",
              "type": "address"
            },
            {
              "internalType": "address",
              "name": "owner",
              "type": "address"
            },
            {
              "internalType": "address",
              "name": "winner",
              "type": "address"
            },
            {
              "internalType": "uint256",
              "name": "price",
              "type": "uint256"
            },
            {
              "internalType": "bool",
              "name": "sold",
              "type": "bool"
            },
            {
              "internalType": "bool",
              "name": "live",
              "type": "bool"
            },
            {
              "internalType": "bool",
              "name": "biddable",
              "type": "bool"
            },
            {
              "internalType": "uint256",
              "name": "bids",
              "type": "uint256"
            },
            {
              "internalType": "uint256",
              "name": "duration",
              "type": "uint256"
            }
          ],
          "internalType": "struct NFTMarketplace.AuctionStruct[]",
          "name": "Auctions",
          "type": "tuple[]"
        }
      ],
      "stateMutability": "view",
      "type": "function"
    },
    {
      "inputs": [],
      "name": "getMyAuctions",
      "outputs": [
        {
          "components": [
            {
              "internalType": "string",
              "name": "name",
              "type": "string"
            },
            {
              "internalType": "string",
              "name": "description",
              "type": "string"
            },
            {
              "internalType": "string",
              "name": "image",
              "type": "string"
            },
            {
              "internalType": "uint256",
              "name": "tokenId",
              "type": "uint256"
            },
            {
              "internalType": "address",
              "name": "seller",
              "type": "address"
            },
            {
              "internalType": "address",
              "name": "owner",
              "type": "address"
            },
            {
              "internalType": "address",
              "name": "winner",
              "type": "address"
            },
            {
              "internalType": "uint256",
              "name": "price",
              "type": "uint256"
            },
            {
              "internalType": "bool",
              "name": "sold",
              "type": "bool"
            },
            {
              "internalType": "bool",
              "name": "live",
              "type": "bool"
            },
            {
              "internalType": "bool",
              "name": "biddable",
              "type": "bool"
            },
            {
              "internalType": "uint256",
              "name": "bids",
              "type": "uint256"
            },
            {
              "internalType": "uint256",
              "name": "duration",
              "type": "uint256"
            }
          ],
          "internalType": "struct NFTMarketplace.AuctionStruct[]",
          "name": "Auctions",
          "type": "tuple[]"
        }
      ],
      "stateMutability": "view",
      "type": "function"
    },
    {
      "inputs": [
        {
          "internalType": "address",
          "name": "owner",
          "type": "address"
        },
        {
          "internalType": "address",
          "name": "operator",
          "type": "address"
        }
      ],
      "name": "isApprovedForAll",
      "outputs": [
        {
          "internalType": "bool",
          "name": "",
          "type": "bool"
        }
      ],
      "stateMutability": "view",
      "type": "function"
    },
    {
      "inputs": [],
      "name": "name",
      "outputs": [
        {
          "internalType": "string",
          "name": "",
          "type": "string"
        }
      ],
      "stateMutability": "view",
      "type": "function"
    },
    {
      "inputs": [
        {
          "internalType": "uint256",
          "name": "tokenId",
          "type": "uint256"
        },
        {
          "internalType": "bool",
          "name": "biddable",
          "type": "bool"
        },
        {
          "internalType": "uint256",
          "name": "sec",
          "type": "uint256"
        },
        {
          "internalType": "uint256",
          "name": "min",
          "type": "uint256"
        },
        {
          "internalType": "uint256",
          "name": "hour",
          "type": "uint256"
        },
        {
          "internalType": "uint256",
          "name": "day",
          "type": "uint256"
        }
      ],
      "name": "offerAuction",
      "outputs": [],
      "stateMutability": "nonpayable",
      "type": "function"
    },
    {
      "inputs": [],
      "name": "owner",
      "outputs": [
        {
          "internalType": "address",
          "name": "",
          "type": "address"
        }
      ],
      "stateMutability": "view",
      "type": "function"
    },
    {
      "inputs": [
        {
          "internalType": "uint256",
          "name": "tokenId",
          "type": "uint256"
        }
      ],
      "name": "ownerOf",
      "outputs": [
        {
          "internalType": "address",
          "name": "",
          "type": "address"
        }
      ],
      "stateMutability": "view",
      "type": "function"
    },
    {
      "inputs": [
        {
          "internalType": "uint256",
          "name": "tokenId",
          "type": "uint256"
        }
      ],
      "name": "placeBid",
      "outputs": [],
      "stateMutability": "payable",
      "type": "function"
    },
    {
      "inputs": [],
      "name": "renounceOwnership",
      "outputs": [],
      "stateMutability": "nonpayable",
      "type": "function"
    },
    {
      "inputs": [
        {
          "internalType": "address",
          "name": "from",
          "type": "address"
        },
        {
          "internalType": "address",
          "name": "to",
          "type": "address"
        },
        {
          "internalType": "uint256",
          "name": "tokenId",
          "type": "uint256"
        }
      ],
      "name": "safeTransferFrom",
      "outputs": [],
      "stateMutability": "nonpayable",
      "type": "function"
    },
    {
      "inputs": [
        {
          "internalType": "address",
          "name": "from",
          "type": "address"
        },
        {
          "internalType": "address",
          "name": "to",
          "type": "address"
        },
        {
          "internalType": "uint256",
          "name": "tokenId",
          "type": "uint256"
        },
        {
          "internalType": "bytes",
          "name": "data",
          "type": "bytes"
        }
      ],
      "name": "safeTransferFrom",
      "outputs": [],
      "stateMutability": "nonpayable",
      "type": "function"
    },
    {
      "inputs": [
        {
          "internalType": "address",
          "name": "operator",
          "type": "address"
        },
        {
          "internalType": "bool",
          "name": "approved",
          "type": "bool"
        }
      ],
      "name": "setApprovalForAll",
      "outputs": [],
      "stateMutability": "nonpayable",
      "type": "function"
    },
    {
      "inputs": [
        {
          "internalType": "uint256",
          "name": "_price",
          "type": "uint256"
        }
      ],
      "name": "setListingPrice",
      "outputs": [],
      "stateMutability": "nonpayable",
      "type": "function"
    },
    {
      "inputs": [
        {
          "internalType": "bytes4",
          "name": "interfaceId",
          "type": "bytes4"
        }
      ],
      "name": "supportsInterface",
      "outputs": [
        {
          "internalType": "bool",
          "name": "",
          "type": "bool"
        }
      ],
      "stateMutability": "view",
      "type": "function"
    },
    {
      "inputs": [],
      "name": "symbol",
      "outputs": [
        {
          "internalType": "string",
          "name": "",
          "type": "string"
        }
      ],
      "stateMutability": "view",
      "type": "function"
    },
    {
      "inputs": [
        {
          "internalType": "uint256",
          "name": "tokenId",
          "type": "uint256"
        }
      ],
      "name": "tokenURI",
      "outputs": [
        {
          "internalType": "string",
          "name": "",
          "type": "string"
        }
      ],
      "stateMutability": "view",
      "type": "function"
    },
    {
      "inputs": [
        {
          "internalType": "address",
          "name": "from",
          "type": "address"
        },
        {
          "internalType": "address",
          "name": "to",
          "type": "address"
        },
        {
          "internalType": "uint256",
          "name": "tokenId",
          "type": "uint256"
        }
      ],
      "name": "transferFrom",
      "outputs": [],
      "stateMutability": "nonpayable",
      "type": "function"
    },
    {
      "inputs": [
        {
          "internalType": "address",
          "name": "newOwner",
          "type": "address"
        }
      ],
      "name": "transferOwnership",
      "outputs": [],
      "stateMutability": "nonpayable",
      "type": "function"
    }
  ],
  "bytecode": "0x608060405266470de4df820000600c553480156200001c57600080fd5b5060405162003e3738038062003e378339810160408190526200003f91620001db565b604080518082018252601581527f4e46544d61726b6574706c61636520546f6b656e73000000000000000000000060208083019182528351808501909452600384526204e4d560ec1b9084015281519192916200009f9160009162000135565b508051620000b590600190602084019062000135565b5050600160075550620000c833620000e3565b600a80546001600160a01b03191633179055600b5562000232565b600880546001600160a01b038381166001600160a01b0319831681179093556040519116919082907f8be0079c531659141344cd1fd0a4f28419497f9722a3daafe3b4186f6b6457e090600090a35050565b8280546200014390620001f5565b90600052602060002090601f016020900481019282620001675760008555620001b2565b82601f106200018257805160ff1916838001178555620001b2565b82800160010185558215620001b2579182015b82811115620001b257825182559160200191906001019062000195565b50620001c0929150620001c4565b5090565b5b80821115620001c05760008155600101620001c5565b600060208284031215620001ee57600080fd5b5051919050565b600181811c908216806200020a57607f821691505b602082108114156200022c57634e487b7160e01b600052602260045260246000fd5b50919050565b613bf580620002426000396000f3fe6080604052600436106101c25760003560e01c80637c726b69116100f7578063b88d4fde11610095578063db0bd5c911610064578063db0bd5c9146104f6578063e985e9c51461050b578063f2fde38b14610554578063f5a06acf1461057457600080fd5b8063b88d4fde1461047f578063bf65a3331461049f578063c87b56dd146104c1578063cbd2bdfd146104e157600080fd5b80639979ef45116100d15780639979ef451461040c578063a22cb4651461041f578063a923f18c1461043f578063b3de019c1461045f57600080fd5b80637c726b69146103b95780638da5cb5b146103d957806395d89b41146103f757600080fd5b806342842e0e1161016457806370a082311161013e57806370a0823114610337578063715018a61461035757806378bd79351461036c5780637b1541401461039957600080fd5b806342842e0e146102ca5780634fa7b507146102ea5780636352211e1461031757600080fd5b8063095ea7b3116101a0578063095ea7b31461025657806312e855851461027857806323b872dd1461029757806333748dcb146102b757600080fd5b806301ffc9a7146101c757806306fdde03146101fc578063081812fc1461021e575b600080fd5b3480156101d357600080fd5b506101e76101e2366004613378565b610587565b60405190151581526020015b60405180910390f35b34801561020857600080fd5b506102116105b2565b6040516101f391906133ed565b34801561022a57600080fd5b5061023e610239366004613400565b610644565b6040516001600160a01b0390911681526020016101f3565b34801561026257600080fd5b50610276610271366004613435565b61066b565b005b34801561028457600080fd5b50600c545b6040519081526020016101f3565b3480156102a357600080fd5b506102766102b236600461345f565b610786565b6102766102c5366004613547565b6107b7565b3480156102d657600080fd5b506102766102e536600461345f565b610aa3565b3480156102f657600080fd5b5061030a610305366004613400565b610abe565b6040516101f391906135fc565b34801561032357600080fd5b5061023e610332366004613400565b610b70565b34801561034357600080fd5b50610289610352366004613677565b610bd0565b34801561036357600080fd5b50610276610c56565b34801561037857600080fd5b5061038c610387366004613400565b610c6a565b6040516101f39190613792565b3480156103a557600080fd5b506102766103b43660046137a5565b610f16565b3480156103c557600080fd5b506102766103d4366004613400565b61115b565b3480156103e557600080fd5b506008546001600160a01b031661023e565b34801561040357600080fd5b50610211611168565b61027661041a366004613400565b611177565b34801561042b57600080fd5b5061027661043a3660046137d7565b611388565b34801561044b57600080fd5b5061027661045a36600461380a565b611397565b34801561046b57600080fd5b5061027661047a3660046137a5565b611525565b34801561048b57600080fd5b5061027661049a366004613858565b611643565b3480156104ab57600080fd5b506104b461167b565b6040516101f391906138d4565b3480156104cd57600080fd5b506102116104dc366004613400565b611a29565b3480156104ed57600080fd5b506104b4611b3a565b34801561050257600080fd5b506104b4611e44565b34801561051757600080fd5b506101e7610526366004613936565b6001600160a01b03918216600090815260056020908152604080832093909416825291909152205460ff1690565b34801561056057600080fd5b5061027661056f366004613677565b6121ef565b610276610582366004613400565b612268565b60006001600160e01b03198216632483248360e11b14806105ac57506105ac826124b9565b92915050565b6060600080546105c190613960565b80601f01602080910402602001604051908101604052809291908181526020018280546105ed90613960565b801561063a5780601f1061060f5761010080835404028352916020019161063a565b820191906000526020600020905b81548152906001019060200180831161061d57829003601f168201915b5050505050905090565b600061064f82612509565b506000908152600460205260409020546001600160a01b031690565b600061067682610b70565b9050806001600160a01b0316836001600160a01b031614156106e95760405162461bcd60e51b815260206004820152602160248201527f4552433732313a20617070726f76616c20746f2063757272656e74206f776e656044820152603960f91b60648201526084015b60405180910390fd5b336001600160a01b038216148061070557506107058133610526565b6107775760405162461bcd60e51b815260206004820152603d60248201527f4552433732313a20617070726f76652063616c6c6572206973206e6f7420746f60448201527f6b656e206f776e6572206f7220617070726f76656420666f7220616c6c00000060648201526084016106e0565b6107818383612568565b505050565b61079033826125d6565b6107ac5760405162461bcd60e51b81526004016106e09061399b565b610781838383612654565b6107bf6127b8565b600081116108085760405162461bcd60e51b8152602060048201526016602482015275283934b1b29036bab9ba101f10181032ba3432b9399760511b60448201526064016106e0565b600c5434101561085a5760405162461bcd60e51b815260206004820152601c60248201527f5072696365206d757374203e3d206c697374696e672070726963652e0000000060448201526064016106e0565b61086382612812565b6108a35760405162461bcd60e51b8152602060048201526011602482015270135a5b9d081d5b9cdd58d8d95cdcd99d5b607a1b60448201526064016106e0565b60006108ae60095490565b90506108b86131e5565b60608101829052868152602081018690526040810185905260e081018390526108e4600080808061284c565b610180820152336080820181905260a08201526000828152600d6020908152604090912082518051849361091c92849291019061326e565b506020828101518051610935926001850192019061326e565b506040820151805161095191600284019160209091019061326e565b506060820151600382015560808201516004820180546001600160a01b03199081166001600160a01b039384161790915560a0840151600584018054831691841691909117905560c084015160068401805490921690831617905560e083015160078301556101008084015160088401805461012087015161014088015161ffff1990921693151561ff001916939093179215159093029190911762ff000019166201000092151592909202919091179055610160830151600983015561018090920151600a918201556000848152600e60205260409020805460ff1916600117905554600c54610a469291909116906128ae565b604080513381526000602082018190528183018690526060820152905183917fa693a8f68fe4df789541ddd1b84d32ccaea90adddcc88406b4bbbf6466328d3c919081900360800190a25050610a9c6001600755565b5050505050565b61078183838360405180602001604052806000815250611643565b606060106000838152602001908152602001600020805480602002602001604051908101604052809291908181526020016000905b82821015610b655760008481526020908190206040805160a0810182526004860290920180546001600160a01b03168352600180820154848601526002820154928401929092526003015460ff8082161515606085015261010090910416151560808301529083529092019101610af3565b505050509050919050565b6000818152600260205260408120546001600160a01b0316806105ac5760405162461bcd60e51b8152602060048201526018602482015277115490cdcc8c4e881a5b9d985b1a59081d1bdad95b88125160421b60448201526064016106e0565b60006001600160a01b038216610c3a5760405162461bcd60e51b815260206004820152602960248201527f4552433732313a2061646472657373207a65726f206973206e6f7420612076616044820152683634b21037bbb732b960b91b60648201526084016106e0565b506001600160a01b031660009081526003602052604090205490565b610c5e612915565b610c68600061296f565b565b610c726131e5565b6000828152600e602052604090205460ff16610cbc5760405162461bcd60e51b8152602060048201526009602482015268139bdd08199bdd5b9960ba1b60448201526064016106e0565b6000828152600d60205260409081902081516101a08101909252805482908290610ce590613960565b80601f0160208091040260200160405190810160405280929190818152602001828054610d1190613960565b8015610d5e5780601f10610d3357610100808354040283529160200191610d5e565b820191906000526020600020905b815481529060010190602001808311610d4157829003601f168201915b50505050508152602001600182018054610d7790613960565b80601f0160208091040260200160405190810160405280929190818152602001828054610da390613960565b8015610df05780601f10610dc557610100808354040283529160200191610df0565b820191906000526020600020905b815481529060010190602001808311610dd357829003601f168201915b50505050508152602001600282018054610e0990613960565b80601f0160208091040260200160405190810160405280929190818152602001828054610e3590613960565b8015610e825780601f10610e5757610100808354040283529160200191610e82565b820191906000526020600020905b815481529060010190602001808311610e6557829003601f168201915b50505091835250506003820154602082015260048201546001600160a01b0390811660408301526005830154811660608301526006830154166080820152600782015460a0820152600882015460ff808216151560c08401526101008083048216151560e085015262010000909204161515908201526009820154610120820152600a909101546101409091015292915050565b6000828152600d60205260408120600a015490610f359080808061284c565b11610f6f5760405162461bcd60e51b815260206004820152600a6024820152695374696c6c206c69766560b01b60448201526064016106e0565b6000828152600d60205260409020600601546001600160a01b03163314610fc55760405162461bcd60e51b815260206004820152600a6024820152692737ba103bb4b73732b960b11b60448201526064016106e0565b600082815260106020526040902080546001919083908110610fe957610fe96139e8565b60009182526020808320600492830201600301805461ff0019166101009515159590950294909417909355848252600d909252604081206007810154928101546006820180546001600160a01b031916905560088201805461ffff1916600117905560099091018290556001600160a01b0316906110699080808061284c565b6000858152600d60205260408120600a0191909155600b5460649061108e9085613a14565b6110989190613a33565b6000868152600d60205260409020600501549091506110c9906001600160a01b03166110c48386613a55565b6128ae565b6110d382826128ae565b6040516323b872dd60e01b8152306004820181905233602483015260448201879052906323b872dd90606401600060405180830381600087803b15801561111957600080fd5b505af115801561112d573d6000803e3d6000fd5b5050506000868152600d6020526040902060050180546001600160a01b0319163317905550610a9c856129c1565b611163612915565b600c55565b6060600180546105c190613960565b6000818152600d60205260409020600701543410156111c75760405162461bcd60e51b815260206004820152600c60248201526b125b9cdd59999a58da595b9d60a21b60448201526064016106e0565b6111d560008060008061284c565b6000828152600d60205260409020600a0154116112245760405162461bcd60e51b815260206004820152600d60248201526c4e6f7420617661696c61626c6560981b60448201526064016106e0565b6000818152600d602052604090206008015462010000900460ff1661127a5760405162461bcd60e51b815260206004820152600c60248201526b42696464696e67206f6e6c7960a01b60448201526064016106e0565b6040805160a08101825260009181018290526060810182905260808101829052338152346020820152906112b09080808061284c565b6040808301918252600084815260106020908152828220805460018181018355918452828420875160049092020180546001600160a01b039092166001600160a01b0319909216919091178155828701519181019190915593516002850155606085015160039094018054608087015115156101000261ff00199615159690961661ffff199091161794909417909355848152600d909252812060090180549161135983613a6c565b9091555050506000908152600d6020526040902034600782015560060180546001600160a01b03191633179055565b611393338383612ba2565b5050565b6000868152600d60205260409020600501546001600160a01b031633146113ef5760405162461bcd60e51b815260206004820152600c60248201526b155b985d5d1a1bdc9a5e995960a21b60448201526064016106e0565b6000868152600d6020526040902060090154156114425760405162461bcd60e51b815260206004820152601160248201527057696e6e6572206d75737420636c61696d60781b60448201526064016106e0565b6000868152600d6020526040902060080154610100900460ff166114ca5761146b306001611388565b6040516323b872dd60e01b8152336004820152306024820181905260448201889052906323b872dd90606401600060405180830381600087803b1580156114b157600080fd5b505af11580156114c5573d6000803e3d6000fd5b505050505b6000868152600d6020526040812060098101919091556008018054861515620100000262ffffff19909116176101001790556115088484848461284c565b6000968752600d6020526040909620600a01959095555050505050565b6000828152600d60205260409020600501546001600160a01b0316331461157d5760405162461bcd60e51b815260206004820152600c60248201526b155b985d5d1a1bdc9a5e995960a21b60448201526064016106e0565b6000828152600d60205260408120600a01549061159c9080808061284c565b116115de5760405162461bcd60e51b815260206004820152601260248201527141756374696f6e207374696c6c204c69766560701b60448201526064016106e0565b6000811161162e5760405162461bcd60e51b815260206004820152601f60248201527f5072696365206d7573742062652067726561746572207468616e207a65726f0060448201526064016106e0565b6000918252600d602052604090912060070155565b61164d33836125d6565b6116695760405162461bcd60e51b81526004016106e09061399b565b61167584848484612c71565b50505050565b6060600061168860095490565b90506000805b828110156116e95733600d60006116a6846001613a87565b81526020810191909152604001600020600501546001600160a01b031614156116d757816116d381613a6c565b9250505b806116e181613a6c565b91505061168e565b508067ffffffffffffffff8111156117035761170361349b565b60405190808252806020026020018201604052801561173c57816020015b6117296131e5565b8152602001906001900390816117215790505b5092506000805b83811015611a225733600d600061175b846001613a87565b81526020810191909152604001600020600501546001600160a01b03161415611a1057600d600061178d836001613a87565b8152602001908152602001600020604051806101a00160405290816000820180546117b790613960565b80601f01602080910402602001604051908101604052809291908181526020018280546117e390613960565b80156118305780601f1061180557610100808354040283529160200191611830565b820191906000526020600020905b81548152906001019060200180831161181357829003601f168201915b5050505050815260200160018201805461184990613960565b80601f016020809104026020016040519081016040528092919081815260200182805461187590613960565b80156118c25780601f10611897576101008083540402835291602001916118c2565b820191906000526020600020905b8154815290600101906020018083116118a557829003601f168201915b505050505081526020016002820180546118db90613960565b80601f016020809104026020016040519081016040528092919081815260200182805461190790613960565b80156119545780601f1061192957610100808354040283529160200191611954565b820191906000526020600020905b81548152906001019060200180831161193757829003601f168201915b50505091835250506003820154602082015260048201546001600160a01b0390811660408301526005830154811660608301526006830154166080820152600782015460a0820152600882015460ff808216151560c08401526101008083048216151560e085015262010000909204161515908201526009820154610120820152600a909101546101409091015285518690849081106119f6576119f66139e8565b60200260200101819052508180611a0c90613a6c565b9250505b80611a1a81613a6c565b915050611743565b5050505090565b6060611a3482612509565b60008281526006602052604081208054611a4d90613960565b80601f0160208091040260200160405190810160405280929190818152602001828054611a7990613960565b8015611ac65780601f10611a9b57610100808354040283529160200191611ac6565b820191906000526020600020905b815481529060010190602001808311611aa957829003601f168201915b505050505090506000611ae460408051602081019091526000815290565b9050805160001415611af7575092915050565b815115611b29578082604051602001611b11929190613a9f565b60405160208183030381529060405292505050919050565b611b3284612ca4565b949350505050565b60606000611b4760095490565b90508067ffffffffffffffff811115611b6257611b6261349b565b604051908082528060200260200182016040528015611b9b57816020015b611b886131e5565b815260200190600190039081611b805790505b50915060005b81811015611e3f57600d6000611bb8836001613a87565b8152602001908152602001600020604051806101a0016040529081600082018054611be290613960565b80601f0160208091040260200160405190810160405280929190818152602001828054611c0e90613960565b8015611c5b5780601f10611c3057610100808354040283529160200191611c5b565b820191906000526020600020905b815481529060010190602001808311611c3e57829003601f168201915b50505050508152602001600182018054611c7490613960565b80601f0160208091040260200160405190810160405280929190818152602001828054611ca090613960565b8015611ced5780601f10611cc257610100808354040283529160200191611ced565b820191906000526020600020905b815481529060010190602001808311611cd057829003601f168201915b50505050508152602001600282018054611d0690613960565b80601f0160208091040260200160405190810160405280929190818152602001828054611d3290613960565b8015611d7f5780601f10611d5457610100808354040283529160200191611d7f565b820191906000526020600020905b815481529060010190602001808311611d6257829003601f168201915b50505091835250506003820154602082015260048201546001600160a01b0390811660408301526005830154811660608301526006830154166080820152600782015460a0820152600882015460ff808216151560c08401526101008083048216151560e085015262010000909204161515908201526009820154610120820152600a90910154610140909101528351849083908110611e2157611e216139e8565b60200260200101819052508080611e3790613a6c565b915050611ba1565b505090565b60606000611e5160095490565b90506000805b82811015611eb457611e6d60008060008061284c565b600d6000611e7c846001613a87565b8152602001908152602001600020600a01541115611ea25781611e9e81613a6c565b9250505b80611eac81613a6c565b915050611e57565b508067ffffffffffffffff811115611ece57611ece61349b565b604051908082528060200260200182016040528015611f0757816020015b611ef46131e5565b815260200190600190039081611eec5790505b5092506000805b83811015611a2257611f2460008060008061284c565b600d6000611f33846001613a87565b8152602001908152602001600020600a015411156121dd57600d6000611f5a836001613a87565b8152602001908152602001600020604051806101a0016040529081600082018054611f8490613960565b80601f0160208091040260200160405190810160405280929190818152602001828054611fb090613960565b8015611ffd5780601f10611fd257610100808354040283529160200191611ffd565b820191906000526020600020905b815481529060010190602001808311611fe057829003601f168201915b5050505050815260200160018201805461201690613960565b80601f016020809104026020016040519081016040528092919081815260200182805461204290613960565b801561208f5780601f106120645761010080835404028352916020019161208f565b820191906000526020600020905b81548152906001019060200180831161207257829003601f168201915b505050505081526020016002820180546120a890613960565b80601f01602080910402602001604051908101604052809291908181526020018280546120d490613960565b80156121215780601f106120f657610100808354040283529160200191612121565b820191906000526020600020905b81548152906001019060200180831161210457829003601f168201915b50505091835250506003820154602082015260048201546001600160a01b0390811660408301526005830154811660608301526006830154166080820152600782015460a0820152600882015460ff808216151560c08401526101008083048216151560e085015262010000909204161515908201526009820154610120820152600a909101546101409091015285518690849081106121c3576121c36139e8565b602002602001018190525081806121d990613a6c565b9250505b806121e781613a6c565b915050611f0e565b6121f7612915565b6001600160a01b03811661225c5760405162461bcd60e51b815260206004820152602660248201527f4f776e61626c653a206e6577206f776e657220697320746865207a65726f206160448201526564647265737360d01b60648201526084016106e0565b6122658161296f565b50565b6122706127b8565b6000818152600d60205260409020600701543410156122c05760405162461bcd60e51b815260206004820152600c60248201526b125b9cdd59999a58da595b9d60a21b60448201526064016106e0565b6122ce60008060008061284c565b6000828152600d60205260409020600a01541161231d5760405162461bcd60e51b815260206004820152600d60248201526c4e6f7420617661696c61626c6560981b60448201526064016106e0565b6000818152600d602052604090206008015462010000900460ff16156123755760405162461bcd60e51b815260206004820152600d60248201526c5075726368617365206f6e6c7960981b60448201526064016106e0565b6000818152600d60205260408120600481015460088201805461ffff1916600117905560099091018290556001600160a01b0316906123b69080808061284c565b6000838152600d60205260408120600a0191909155600b546064906123db9034613a14565b6123e59190613a33565b6000848152600d6020526040902060050154909150612411906001600160a01b03166110c48334613a55565b61241b82826128ae565b6000838152600d6020526040908190206003015490516323b872dd60e01b8152306004820181905233602483015260448201929092526323b872dd90606401600060405180830381600087803b15801561247457600080fd5b505af1158015612488573d6000803e3d6000fd5b5050506000848152600d6020526040902060050180546001600160a01b0319163317905550612265915061290e9050565b60006001600160e01b031982166380ac58cd60e01b14806124ea57506001600160e01b03198216635b5e139f60e01b145b806105ac57506301ffc9a760e01b6001600160e01b03198316146105ac565b6000818152600260205260409020546001600160a01b03166122655760405162461bcd60e51b8152602060048201526018602482015277115490cdcc8c4e881a5b9d985b1a59081d1bdad95b88125160421b60448201526064016106e0565b600081815260046020526040902080546001600160a01b0319166001600160a01b038416908117909155819061259d82610b70565b6001600160a01b03167f8c5be1e5ebec7d5bd14f71427d1e84f3dd0314c0f7b2291e5b200ac8c7c3b92560405160405180910390a45050565b6000806125e283610b70565b9050806001600160a01b0316846001600160a01b0316148061262957506001600160a01b0380821660009081526005602090815260408083209388168352929052205460ff165b80611b325750836001600160a01b031661264284610644565b6001600160a01b031614949350505050565b826001600160a01b031661266782610b70565b6001600160a01b03161461268d5760405162461bcd60e51b81526004016106e090613ace565b6001600160a01b0382166126ef5760405162461bcd60e51b8152602060048201526024808201527f4552433732313a207472616e7366657220746f20746865207a65726f206164646044820152637265737360e01b60648201526084016106e0565b826001600160a01b031661270282610b70565b6001600160a01b0316146127285760405162461bcd60e51b81526004016106e090613ace565b600081815260046020908152604080832080546001600160a01b03199081169091556001600160a01b0387811680865260038552838620805460001901905590871680865283862080546001019055868652600290945282852080549092168417909155905184937fddf252ad1be2c89b69c2b068fc378daa952ba7f163c4a11628f55a4df523b3ef91a4505050565b6002600754141561280b5760405162461bcd60e51b815260206004820152601f60248201527f5265656e7472616e637947756172643a207265656e7472616e742063616c6c0060448201526064016106e0565b6002600755565b6000612822600980546001019055565b600061282d60095490565b90506128393382612d18565b6128438184612ea3565b50600192915050565b600061285b8262015180613a14565b61286784610e10613a14565b61287286603c613a14565b61287d886001613a14565b6128879042613a87565b6128919190613a87565b61289b9190613a87565b6128a59190613a87565b95945050505050565b6000826001600160a01b03168260405160006040518083038185875af1925050503d80600081146128fb576040519150601f19603f3d011682016040523d82523d6000602084013e612900565b606091505b505090508061078157600080fd5b6001600755565b6008546001600160a01b03163314610c685760405162461bcd60e51b815260206004820181905260248201527f4f776e61626c653a2063616c6c6572206973206e6f7420746865206f776e657260448201526064016106e0565b600880546001600160a01b038381166001600160a01b0319831681179093556040519116919082907f8be0079c531659141344cd1fd0a4f28419497f9722a3daafe3b4186f6b6457e090600090a35050565b60005b600082815260106020526040902054811015612b8a5760008281526010602052604090208054339190839081106129fd576129fd6139e8565b60009182526020909120600490910201546001600160a01b031614612ae957600082815260106020526040902080546001919083908110612a4057612a406139e8565b906000526020600020906004020160030160006101000a81548160ff021916908315150217905550612ae4601060008481526020019081526020016000208281548110612a8f57612a8f6139e8565b600091825260208083206004909202909101548583526010909152604090912080546001600160a01b039092169184908110612acd57612acd6139e8565b9060005260206000209060040201600101546128ae565b612b36565b600082815260106020526040902080546001919083908110612b0d57612b0d6139e8565b906000526020600020906004020160030160016101000a81548160ff0219169083151502179055505b612b4460008060008061284c565b6000838152601060205260409020805483908110612b6457612b646139e8565b600091825260209091206002600490920201015580612b8281613a6c565b9150506129c4565b506000818152601060205260408120612265916132f2565b816001600160a01b0316836001600160a01b03161415612c045760405162461bcd60e51b815260206004820152601960248201527f4552433732313a20617070726f766520746f2063616c6c65720000000000000060448201526064016106e0565b6001600160a01b03838116600081815260056020908152604080832094871680845294825291829020805460ff191686151590811790915591519182527f17307eab39ab6107e8899845ad3d59bd9653f200f220920489ca2b5937696c31910160405180910390a3505050565b612c7c848484612654565b612c8884848484612f75565b6116755760405162461bcd60e51b81526004016106e090613b13565b6060612caf82612509565b6000612cc660408051602081019091526000815290565b90506000815111612ce65760405180602001604052806000815250612d11565b80612cf084613070565b604051602001612d01929190613a9f565b6040516020818303038152906040525b9392505050565b6001600160a01b038216612d6e5760405162461bcd60e51b815260206004820181905260248201527f4552433732313a206d696e7420746f20746865207a65726f206164647265737360448201526064016106e0565b6000818152600260205260409020546001600160a01b031615612dd35760405162461bcd60e51b815260206004820152601c60248201527f4552433732313a20746f6b656e20616c7265616479206d696e7465640000000060448201526064016106e0565b6000818152600260205260409020546001600160a01b031615612e385760405162461bcd60e51b815260206004820152601c60248201527f4552433732313a20746f6b656e20616c7265616479206d696e7465640000000060448201526064016106e0565b6001600160a01b038216600081815260036020908152604080832080546001019055848352600290915280822080546001600160a01b0319168417905551839291907fddf252ad1be2c89b69c2b068fc378daa952ba7f163c4a11628f55a4df523b3ef908290a45050565b6000828152600260205260409020546001600160a01b0316612f1e5760405162461bcd60e51b815260206004820152602e60248201527f45524337323155524953746f726167653a2055524920736574206f66206e6f6e60448201526d32bc34b9ba32b73a103a37b5b2b760911b60648201526084016106e0565b60008281526006602090815260409091208251612f3d9284019061326e565b506040518281527ff8e1a15aba9398e019f0b49df1a4fde98ee17ae345cb5f6b5e2c27f5033e8ce79060200160405180910390a15050565b60006001600160a01b0384163b1561306857604051630a85bd0160e11b81526001600160a01b0385169063150b7a0290612fb9903390899088908890600401613b65565b6020604051808303816000875af1925050508015612ff4575060408051601f3d908101601f19168201909252612ff191810190613ba2565b60015b61304e573d808015613022576040519150601f19603f3d011682016040523d82523d6000602084013e613027565b606091505b5080516130465760405162461bcd60e51b81526004016106e090613b13565b805181602001fd5b6001600160e01b031916630a85bd0160e11b149050611b32565b506001611b32565b6060600061307d8361310d565b600101905060008167ffffffffffffffff81111561309d5761309d61349b565b6040519080825280601f01601f1916602001820160405280156130c7576020820181803683370190505b5090508181016020015b600019016f181899199a1a9b1b9c1cb0b131b232b360811b600a86061a8153600a850494508461310057613105565b6130d1565b509392505050565b60008072184f03e93ff9f4daa797ed6e38ed64bf6a1f0160401b831061314c5772184f03e93ff9f4daa797ed6e38ed64bf6a1f0160401b830492506040015b6d04ee2d6d415b85acef81000000008310613178576d04ee2d6d415b85acef8100000000830492506020015b662386f26fc10000831061319657662386f26fc10000830492506010015b6305f5e10083106131ae576305f5e100830492506008015b61271083106131c257612710830492506004015b606483106131d4576064830492506002015b600a83106105ac5760010192915050565b604051806101a001604052806060815260200160608152602001606081526020016000815260200160006001600160a01b0316815260200160006001600160a01b0316815260200160006001600160a01b031681526020016000815260200160001515815260200160001515815260200160001515815260200160008152602001600081525090565b82805461327a90613960565b90600052602060002090601f01602090048101928261329c57600085556132e2565b82601f106132b557805160ff19168380011785556132e2565b828001600101855582156132e2579182015b828111156132e25782518255916020019190600101906132c7565b506132ee929150613313565b5090565b50805460008255600402906000526020600020908101906122659190613328565b5b808211156132ee5760008155600101613314565b5b808211156132ee5780546001600160a01b0319168155600060018201819055600282015560038101805461ffff19169055600401613329565b6001600160e01b03198116811461226557600080fd5b60006020828403121561338a57600080fd5b8135612d1181613362565b60005b838110156133b0578181015183820152602001613398565b838111156116755750506000910152565b600081518084526133d9816020860160208601613395565b601f01601f19169290920160200192915050565b602081526000612d1160208301846133c1565b60006020828403121561341257600080fd5b5035919050565b80356001600160a01b038116811461343057600080fd5b919050565b6000806040838503121561344857600080fd5b61345183613419565b946020939093013593505050565b60008060006060848603121561347457600080fd5b61347d84613419565b925061348b60208501613419565b9150604084013590509250925092565b634e487b7160e01b600052604160045260246000fd5b600067ffffffffffffffff808411156134cc576134cc61349b565b604051601f8501601f19908116603f011681019082821181831017156134f4576134f461349b565b8160405280935085815286868601111561350d57600080fd5b858560208301376000602087830101525050509392505050565b600082601f83011261353857600080fd5b612d11838335602085016134b1565b600080600080600060a0868803121561355f57600080fd5b853567ffffffffffffffff8082111561357757600080fd5b61358389838a01613527565b9650602088013591508082111561359957600080fd5b6135a589838a01613527565b955060408801359150808211156135bb57600080fd5b6135c789838a01613527565b945060608801359150808211156135dd57600080fd5b506135ea88828901613527565b95989497509295608001359392505050565b602080825282518282018190526000919060409081850190868401855b8281101561366a57815180516001600160a01b031685528681015187860152858101518686015260608082015115159086015260809081015115159085015260a09093019290850190600101613619565b5091979650505050505050565b60006020828403121561368957600080fd5b612d1182613419565b60006101a082518185526136a8828601826133c1565b915050602083015184820360208601526136c282826133c1565b915050604083015184820360408601526136dc82826133c1565b91505060608301516060850152608083015161370360808601826001600160a01b03169052565b5060a083015161371e60a08601826001600160a01b03169052565b5060c083015161373960c08601826001600160a01b03169052565b5060e083015160e0850152610100808401516137588287018215159052565b5050610120838101511515908501526101408084015115159085015261016080840151908501526101809283015192909301919091525090565b602081526000612d116020830184613692565b600080604083850312156137b857600080fd5b50508035926020909101359150565b8035801515811461343057600080fd5b600080604083850312156137ea57600080fd5b6137f383613419565b9150613801602084016137c7565b90509250929050565b60008060008060008060c0878903121561382357600080fd5b86359550613833602088016137c7565b95989597505050506040840135936060810135936080820135935060a0909101359150565b6000806000806080858703121561386e57600080fd5b61387785613419565b935061388560208601613419565b925060408501359150606085013567ffffffffffffffff8111156138a857600080fd5b8501601f810187136138b957600080fd5b6138c8878235602084016134b1565b91505092959194509250565b6000602080830181845280855180835260408601915060408160051b870101925083870160005b8281101561392957603f19888603018452613917858351613692565b945092850192908501906001016138fb565b5092979650505050505050565b6000806040838503121561394957600080fd5b61395283613419565b915061380160208401613419565b600181811c9082168061397457607f821691505b6020821081141561399557634e487b7160e01b600052602260045260246000fd5b50919050565b6020808252602d908201527f4552433732313a2063616c6c6572206973206e6f7420746f6b656e206f776e6560408201526c1c881bdc88185c1c1c9bdd9959609a1b606082015260800190565b634e487b7160e01b600052603260045260246000fd5b634e487b7160e01b600052601160045260246000fd5b6000816000190483118215151615613a2e57613a2e6139fe565b500290565b600082613a5057634e487b7160e01b600052601260045260246000fd5b500490565b600082821015613a6757613a676139fe565b500390565b6000600019821415613a8057613a806139fe565b5060010190565b60008219821115613a9a57613a9a6139fe565b500190565b60008351613ab1818460208801613395565b835190830190613ac5818360208801613395565b01949350505050565b60208082526025908201527f4552433732313a207472616e736665722066726f6d20696e636f72726563742060408201526437bbb732b960d91b606082015260800190565b60208082526032908201527f4552433732313a207472616e7366657220746f206e6f6e20455243373231526560408201527131b2b4bb32b91034b6b83632b6b2b73a32b960711b606082015260800190565b6001600160a01b0385811682528416602082015260408101839052608060608201819052600090613b98908301846133c1565b9695505050505050565b600060208284031215613bb457600080fd5b8151612d118161336256fea26469706673582212204922f0af8c48629963ddf4422db5fe503b935f3fbd9e5b162276208c056f164964736f6c634300080b0033",
  "linkReferences": {},
  "deployedLinkReferences": {}
}