{
  "_format": "hh-sol-artifact-1",
  "contractName": "NFTMarketplace",
  "sourceName": "src/contracts/NFTMarketplace.sol",
  "abi": [
    {
      "inputs": [],
      "stateMutability": "nonpayable",
      "type": "constructor"
    },
    {
      "anonymous": false,
      "inputs": [
        {
          "indexed": true,
          "internalType": "address",
          "name": "owner",
          "type": "address"
        },
        {
          "indexed": true,
          "internalType": "address",
          "name": "approved",
          "type": "address"
        },
        {
          "indexed": true,
          "internalType": "uint256",
          "name": "tokenId",
          "type": "uint256"
        }
      ],
      "name": "Approval",
      "type": "event"
    },
    {
      "anonymous": false,
      "inputs": [
        {
          "indexed": true,
          "internalType": "address",
          "name": "owner",
          "type": "address"
        },
        {
          "indexed": true,
          "internalType": "address",
          "name": "operator",
          "type": "address"
        },
        {
          "indexed": false,
          "internalType": "bool",
          "name": "approved",
          "type": "bool"
        }
      ],
      "name": "ApprovalForAll",
      "type": "event"
    },
    {
      "anonymous": false,
      "inputs": [
        {
          "indexed": false,
          "internalType": "uint256",
          "name": "_fromTokenId",
          "type": "uint256"
        },
        {
          "indexed": false,
          "internalType": "uint256",
          "name": "_toTokenId",
          "type": "uint256"
        }
      ],
      "name": "BatchMetadataUpdate",
      "type": "event"
    },
    {
      "anonymous": false,
      "inputs": [
        {
          "indexed": false,
          "internalType": "uint256",
          "name": "_tokenId",
          "type": "uint256"
        }
      ],
      "name": "MetadataUpdate",
      "type": "event"
    },
    {
      "anonymous": false,
      "inputs": [
        {
          "indexed": true,
          "internalType": "uint256",
          "name": "tokenId",
          "type": "uint256"
        },
        {
          "indexed": false,
          "internalType": "address",
          "name": "owner",
          "type": "address"
        },
        {
          "indexed": false,
          "internalType": "address",
          "name": "seller",
          "type": "address"
        },
        {
          "indexed": false,
          "internalType": "uint256",
          "name": "price",
          "type": "uint256"
        },
        {
          "indexed": false,
          "internalType": "bool",
          "name": "currentlyListed",
          "type": "bool"
        }
      ],
      "name": "NFTListedSuccess",
      "type": "event"
    },
    {
      "anonymous": false,
      "inputs": [
        {
          "indexed": true,
          "internalType": "address",
          "name": "from",
          "type": "address"
        },
        {
          "indexed": true,
          "internalType": "address",
          "name": "to",
          "type": "address"
        },
        {
          "indexed": true,
          "internalType": "uint256",
          "name": "tokenId",
          "type": "uint256"
        }
      ],
      "name": "Transfer",
      "type": "event"
    },
    {
      "inputs": [
        {
          "internalType": "address",
          "name": "to",
          "type": "address"
        },
        {
          "internalType": "uint256",
          "name": "tokenId",
          "type": "uint256"
        }
      ],
      "name": "approve",
      "outputs": [],
      "stateMutability": "nonpayable",
      "type": "function"
    },
    {
      "inputs": [
        {
          "internalType": "address",
          "name": "owner",
          "type": "address"
        }
      ],
      "name": "balanceOf",
      "outputs": [
        {
          "internalType": "uint256",
          "name": "",
          "type": "uint256"
        }
      ],
      "stateMutability": "view",
      "type": "function"
    },
    {
      "inputs": [
        {
          "internalType": "string",
          "name": "tokenURI",
          "type": "string"
        },
        {
          "internalType": "uint256",
          "name": "price",
          "type": "uint256"
        }
      ],
      "name": "createToken",
      "outputs": [
        {
          "internalType": "uint256",
          "name": "",
          "type": "uint256"
        }
      ],
      "stateMutability": "payable",
      "type": "function"
    },
    {
      "inputs": [
        {
          "internalType": "uint256",
          "name": "tokenId",
          "type": "uint256"
        }
      ],
      "name": "executeSale",
      "outputs": [],
      "stateMutability": "payable",
      "type": "function"
    },
    {
      "inputs": [],
      "name": "getAllNFTs",
      "outputs": [
        {
          "components": [
            {
              "internalType": "uint256",
              "name": "tokenId",
              "type": "uint256"
            },
            {
              "internalType": "address payable",
              "name": "owner",
              "type": "address"
            },
            {
              "internalType": "address payable",
              "name": "seller",
              "type": "address"
            },
            {
              "internalType": "uint256",
              "name": "price",
              "type": "uint256"
            },
            {
              "internalType": "bool",
              "name": "currentlyListed",
              "type": "bool"
            }
          ],
          "internalType": "struct NFTMarketplace.ListedNFT[]",
          "name": "",
          "type": "tuple[]"
        }
      ],
      "stateMutability": "view",
      "type": "function"
    },
    {
      "inputs": [
        {
          "internalType": "uint256",
          "name": "tokenId",
          "type": "uint256"
        }
      ],
      "name": "getApproved",
      "outputs": [
        {
          "internalType": "address",
          "name": "",
          "type": "address"
        }
      ],
      "stateMutability": "view",
      "type": "function"
    },
    {
      "inputs": [],
      "name": "getCurrentToken",
      "outputs": [
        {
          "internalType": "uint256",
          "name": "",
          "type": "uint256"
        }
      ],
      "stateMutability": "view",
      "type": "function"
    },
    {
      "inputs": [],
      "name": "getLatestIdToListedNFT",
      "outputs": [
        {
          "components": [
            {
              "internalType": "uint256",
              "name": "tokenId",
              "type": "uint256"
            },
            {
              "internalType": "address payable",
              "name": "owner",
              "type": "address"
            },
            {
              "internalType": "address payable",
              "name": "seller",
              "type": "address"
            },
            {
              "internalType": "uint256",
              "name": "price",
              "type": "uint256"
            },
            {
              "internalType": "bool",
              "name": "currentlyListed",
              "type": "bool"
            }
          ],
          "internalType": "struct NFTMarketplace.ListedNFT",
          "name": "",
          "type": "tuple"
        }
      ],
      "stateMutability": "view",
      "type": "function"
    },
    {
      "inputs": [],
      "name": "getListPrice",
      "outputs": [
        {
          "internalType": "uint256",
          "name": "",
          "type": "uint256"
        }
      ],
      "stateMutability": "view",
      "type": "function"
    },
    {
      "inputs": [
        {
          "internalType": "uint256",
          "name": "tokenId",
          "type": "uint256"
        }
      ],
      "name": "getListedNFTForId",
      "outputs": [
        {
          "components": [
            {
              "internalType": "uint256",
              "name": "tokenId",
              "type": "uint256"
            },
            {
              "internalType": "address payable",
              "name": "owner",
              "type": "address"
            },
            {
              "internalType": "address payable",
              "name": "seller",
              "type": "address"
            },
            {
              "internalType": "uint256",
              "name": "price",
              "type": "uint256"
            },
            {
              "internalType": "bool",
              "name": "currentlyListed",
              "type": "bool"
            }
          ],
          "internalType": "struct NFTMarketplace.ListedNFT",
          "name": "",
          "type": "tuple"
        }
      ],
      "stateMutability": "view",
      "type": "function"
    },
    {
      "inputs": [],
      "name": "getMyNFTs",
      "outputs": [
        {
          "components": [
            {
              "internalType": "uint256",
              "name": "tokenId",
              "type": "uint256"
            },
            {
              "internalType": "address payable",
              "name": "owner",
              "type": "address"
            },
            {
              "internalType": "address payable",
              "name": "seller",
              "type": "address"
            },
            {
              "internalType": "uint256",
              "name": "price",
              "type": "uint256"
            },
            {
              "internalType": "bool",
              "name": "currentlyListed",
              "type": "bool"
            }
          ],
          "internalType": "struct NFTMarketplace.ListedNFT[]",
          "name": "",
          "type": "tuple[]"
        }
      ],
      "stateMutability": "view",
      "type": "function"
    },
    {
      "inputs": [
        {
          "internalType": "address",
          "name": "owner",
          "type": "address"
        },
        {
          "internalType": "address",
          "name": "operator",
          "type": "address"
        }
      ],
      "name": "isApprovedForAll",
      "outputs": [
        {
          "internalType": "bool",
          "name": "",
          "type": "bool"
        }
      ],
      "stateMutability": "view",
      "type": "function"
    },
    {
      "inputs": [],
      "name": "name",
      "outputs": [
        {
          "internalType": "string",
          "name": "",
          "type": "string"
        }
      ],
      "stateMutability": "view",
      "type": "function"
    },
    {
      "inputs": [
        {
          "internalType": "uint256",
          "name": "tokenId",
          "type": "uint256"
        }
      ],
      "name": "ownerOf",
      "outputs": [
        {
          "internalType": "address",
          "name": "",
          "type": "address"
        }
      ],
      "stateMutability": "view",
      "type": "function"
    },
    {
      "inputs": [
        {
          "internalType": "address",
          "name": "from",
          "type": "address"
        },
        {
          "internalType": "address",
          "name": "to",
          "type": "address"
        },
        {
          "internalType": "uint256",
          "name": "tokenId",
          "type": "uint256"
        }
      ],
      "name": "safeTransferFrom",
      "outputs": [],
      "stateMutability": "nonpayable",
      "type": "function"
    },
    {
      "inputs": [
        {
          "internalType": "address",
          "name": "from",
          "type": "address"
        },
        {
          "internalType": "address",
          "name": "to",
          "type": "address"
        },
        {
          "internalType": "uint256",
          "name": "tokenId",
          "type": "uint256"
        },
        {
          "internalType": "bytes",
          "name": "data",
          "type": "bytes"
        }
      ],
      "name": "safeTransferFrom",
      "outputs": [],
      "stateMutability": "nonpayable",
      "type": "function"
    },
    {
      "inputs": [
        {
          "internalType": "address",
          "name": "operator",
          "type": "address"
        },
        {
          "internalType": "bool",
          "name": "approved",
          "type": "bool"
        }
      ],
      "name": "setApprovalForAll",
      "outputs": [],
      "stateMutability": "nonpayable",
      "type": "function"
    },
    {
      "inputs": [
        {
          "internalType": "bytes4",
          "name": "interfaceId",
          "type": "bytes4"
        }
      ],
      "name": "supportsInterface",
      "outputs": [
        {
          "internalType": "bool",
          "name": "",
          "type": "bool"
        }
      ],
      "stateMutability": "view",
      "type": "function"
    },
    {
      "inputs": [],
      "name": "symbol",
      "outputs": [
        {
          "internalType": "string",
          "name": "",
          "type": "string"
        }
      ],
      "stateMutability": "view",
      "type": "function"
    },
    {
      "inputs": [
        {
          "internalType": "uint256",
          "name": "tokenId",
          "type": "uint256"
        }
      ],
      "name": "tokenURI",
      "outputs": [
        {
          "internalType": "string",
          "name": "",
          "type": "string"
        }
      ],
      "stateMutability": "view",
      "type": "function"
    },
    {
      "inputs": [
        {
          "internalType": "address",
          "name": "from",
          "type": "address"
        },
        {
          "internalType": "address",
          "name": "to",
          "type": "address"
        },
        {
          "internalType": "uint256",
          "name": "tokenId",
          "type": "uint256"
        }
      ],
      "name": "transferFrom",
      "outputs": [],
      "stateMutability": "nonpayable",
      "type": "function"
    },
    {
      "inputs": [
        {
          "internalType": "uint256",
          "name": "_listPrice",
          "type": "uint256"
        }
      ],
      "name": "updateListPrice",
      "outputs": [],
      "stateMutability": "payable",
      "type": "function"
    }
  ],
  "bytecode": "0x6080604052662386f26fc10000600a553480156200001c57600080fd5b50604080518082018252600e81526d4e46544d61726b6574706c61636560901b6020808301918252835180850190945260048452634e46544d60e01b9084015281519192916200006f91600091620000a0565b50805162000085906001906020840190620000a0565b5050600980546001600160a01b031916331790555062000183565b828054620000ae9062000146565b90600052602060002090601f016020900481019282620000d257600085556200011d565b82601f10620000ed57805160ff19168380011785556200011d565b828001600101855582156200011d579182015b828111156200011d57825182559160200191906001019062000100565b506200012b9291506200012f565b5090565b5b808211156200012b576000815560010162000130565b600181811c908216806200015b57607f821691505b602082108114156200017d57634e487b7160e01b600052602260045260246000fd5b50919050565b6120ee80620001936000396000f3fe6080604052600436106101355760003560e01c80637a1a52d7116100ab578063b88d4fde1161006f578063b88d4fde14610349578063c322579c14610369578063c87b56dd1461037c578063e0391b091461039c578063e985e9c5146103b1578063ef2d1746146103fa57600080fd5b80637a1a52d7146102bf57806395d89b41146102e15780639b1225c4146102f6578063a22cb46514610309578063a5e2e2d21461032957600080fd5b806342842e0e116100fd57806342842e0e1461020b578063629cb2e41461022b5780636352211e1461024d57806368f1945f1461026d57806370a082311461028c57806372b3b620146102ac57600080fd5b806301ffc9a71461013a57806306fdde031461016f578063081812fc14610191578063095ea7b3146101c957806323b872dd146101eb575b600080fd5b34801561014657600080fd5b5061015a610155366004611b07565b61040f565b60405190151581526020015b60405180910390f35b34801561017b57600080fd5b5061018461043a565b6040516101669190611b7c565b34801561019d57600080fd5b506101b16101ac366004611b8f565b6104cc565b6040516001600160a01b039091168152602001610166565b3480156101d557600080fd5b506101e96101e4366004611bc4565b6104f3565b005b3480156101f757600080fd5b506101e9610206366004611bee565b61060e565b34801561021757600080fd5b506101e9610226366004611bee565b61063f565b34801561023757600080fd5b5061024061065a565b6040516101669190611c6a565b34801561025957600080fd5b506101b1610268366004611b8f565b610881565b34801561027957600080fd5b50600a545b604051908152602001610166565b34801561029857600080fd5b5061027e6102a7366004611cb8565b6108e1565b61027e6102ba366004611d5f565b610967565b3480156102cb57600080fd5b506102d46109a9565b6040516101669190611db8565b3480156102ed57600080fd5b50610184610a20565b6101e9610304366004611b8f565b610a2f565b34801561031557600080fd5b506101e9610324366004611dc6565b610b93565b34801561033557600080fd5b506102d4610344366004611b8f565b610ba2565b34801561035557600080fd5b506101e9610364366004611e02565b610c0c565b6101e9610377366004611b8f565b610c3e565b34801561038857600080fd5b50610184610397366004611b8f565b610ca9565b3480156103a857600080fd5b50610240610dba565b3480156103bd57600080fd5b5061015a6103cc366004611e7e565b6001600160a01b03918216600090815260056020908152604080832093909416825291909152205460ff1690565b34801561040657600080fd5b5061027e610ee4565b60006001600160e01b03198216632483248360e11b1480610434575061043482610ef4565b92915050565b60606000805461044990611eb1565b80601f016020809104026020016040519081016040528092919081815260200182805461047590611eb1565b80156104c25780601f10610497576101008083540402835291602001916104c2565b820191906000526020600020905b8154815290600101906020018083116104a557829003601f168201915b5050505050905090565b60006104d782610f44565b506000908152600460205260409020546001600160a01b031690565b60006104fe82610881565b9050806001600160a01b0316836001600160a01b031614156105715760405162461bcd60e51b815260206004820152602160248201527f4552433732313a20617070726f76616c20746f2063757272656e74206f776e656044820152603960f91b60648201526084015b60405180910390fd5b336001600160a01b038216148061058d575061058d81336103cc565b6105ff5760405162461bcd60e51b815260206004820152603d60248201527f4552433732313a20617070726f76652063616c6c6572206973206e6f7420746f60448201527f6b656e206f776e6572206f7220617070726f76656420666f7220616c6c0000006064820152608401610568565b6106098383610fa6565b505050565b6106183382611014565b6106345760405162461bcd60e51b815260040161056890611eec565b610609838383611092565b61060983838360405180602001604052806000815250610c0c565b6060600061066760075490565b905060008080805b848110156106ff5733600b6000610687846001611f4f565b81526020810191909152604001600020600101546001600160a01b031614806106da575033600b60006106bb846001611f4f565b81526020810191909152604001600020600201546001600160a01b0316145b156106ed576106ea600185611f4f565b93505b806106f781611f67565b91505061066f565b5060008367ffffffffffffffff81111561071b5761071b611cd3565b60405190808252806020026020018201604052801561075457816020015b610741611a2a565b8152602001906001900390816107395790505b50905060005b858110156108775733600b6000610772846001611f4f565b81526020810191909152604001600020600101546001600160a01b031614806107c5575033600b60006107a6846001611f4f565b81526020810191909152604001600020600201546001600160a01b0316145b15610865576107d5816001611f4f565b6000818152600b6020908152604091829020825160a0810184528154815260018201546001600160a01b039081169382019390935260028201549092169282019290925260038201546060820152600482015460ff16151560808201528451929550909184908790811061084b5761084b611f82565b6020908102919091010152610861600186611f4f565b9450505b8061086f81611f67565b91505061075a565b5095945050505050565b6000818152600260205260408120546001600160a01b0316806104345760405162461bcd60e51b8152602060048201526018602482015277115490cdcc8c4e881a5b9d985b1a59081d1bdad95b88125160421b6044820152606401610568565b60006001600160a01b03821661094b5760405162461bcd60e51b815260206004820152602960248201527f4552433732313a2061646472657373207a65726f206973206e6f7420612076616044820152683634b21037bbb732b960b91b6064820152608401610568565b506001600160a01b031660009081526003602052604090205490565b6000610977600780546001019055565b600061098260075490565b905061098e33826111f6565b6109988185611210565b6109a281846112e2565b9392505050565b6109b1611a2a565b60006109bc60075490565b6000908152600b6020908152604091829020825160a0810184528154815260018201546001600160a01b03908116938201939093526002820154909216928201929092526003820154606082015260049091015460ff161515608082015292915050565b60606001805461044990611eb1565b6000818152600b6020526040902060038101546002909101546001600160a01b0316348214610ac8576040805162461bcd60e51b81526020600482015260248101919091527f506c65617365207375626d6974207468652061736b696e67207072696365206960448201527f6e206f7264657220746f20636f6d706c657465207468652070757263686173656064820152608401610568565b6000838152600b6020526040902060048101805460ff1916600117905560020180546001600160a01b03191633179055610b06600880546001019055565b610b11303385611092565b610b1b30846104f3565b600954600a546040516001600160a01b039092169181156108fc0291906000818181858888f19350505050158015610b57573d6000803e3d6000fd5b506040516001600160a01b038216903480156108fc02916000818181858888f19350505050158015610b8d573d6000803e3d6000fd5b50505050565b610b9e338383611484565b5050565b610baa611a2a565b506000908152600b6020908152604091829020825160a0810184528154815260018201546001600160a01b03908116938201939093526002820154909216928201929092526003820154606082015260049091015460ff161515608082015290565b610c163383611014565b610c325760405162461bcd60e51b815260040161056890611eec565b610b8d84848484611553565b6009546001600160a01b03163314610ca45760405162461bcd60e51b815260206004820152602360248201527f4f6e6c79206f776e65722063616e20757064617465206c697374696e6720707260448201526269636560e81b6064820152608401610568565b600a55565b6060610cb482610f44565b60008281526006602052604081208054610ccd90611eb1565b80601f0160208091040260200160405190810160405280929190818152602001828054610cf990611eb1565b8015610d465780601f10610d1b57610100808354040283529160200191610d46565b820191906000526020600020905b815481529060010190602001808311610d2957829003601f168201915b505050505090506000610d6460408051602081019091526000815290565b9050805160001415610d77575092915050565b815115610da9578082604051602001610d91929190611f98565b60405160208183030381529060405292505050919050565b610db284611586565b949350505050565b60606000610dc760075490565b905060008167ffffffffffffffff811115610de457610de4611cd3565b604051908082528060200260200182016040528015610e1d57816020015b610e0a611a2a565b815260200190600190039081610e025790505b509050600080805b84811015610eda57610e38816001611f4f565b6000818152600b6020908152604091829020825160a0810184528154815260018201546001600160a01b039081169382019390935260028201549092169282019290925260038201546060820152600482015460ff161515608082015286519294509091869086908110610eae57610eae611f82565b6020908102919091010152610ec4600185611f4f565b9350508080610ed290611f67565b915050610e25565b5091949350505050565b6000610eef60075490565b905090565b60006001600160e01b031982166380ac58cd60e01b1480610f2557506001600160e01b03198216635b5e139f60e01b145b8061043457506301ffc9a760e01b6001600160e01b0319831614610434565b6000818152600260205260409020546001600160a01b0316610fa35760405162461bcd60e51b8152602060048201526018602482015277115490cdcc8c4e881a5b9d985b1a59081d1bdad95b88125160421b6044820152606401610568565b50565b600081815260046020526040902080546001600160a01b0319166001600160a01b0384169081179091558190610fdb82610881565b6001600160a01b03167f8c5be1e5ebec7d5bd14f71427d1e84f3dd0314c0f7b2291e5b200ac8c7c3b92560405160405180910390a45050565b60008061102083610881565b9050806001600160a01b0316846001600160a01b0316148061106757506001600160a01b0380821660009081526005602090815260408083209388168352929052205460ff165b80610db25750836001600160a01b0316611080846104cc565b6001600160a01b031614949350505050565b826001600160a01b03166110a582610881565b6001600160a01b0316146110cb5760405162461bcd60e51b815260040161056890611fc7565b6001600160a01b03821661112d5760405162461bcd60e51b8152602060048201526024808201527f4552433732313a207472616e7366657220746f20746865207a65726f206164646044820152637265737360e01b6064820152608401610568565b826001600160a01b031661114082610881565b6001600160a01b0316146111665760405162461bcd60e51b815260040161056890611fc7565b600081815260046020908152604080832080546001600160a01b03199081169091556001600160a01b0387811680865260038552838620805460001901905590871680865283862080546001019055868652600290945282852080549092168417909155905184937fddf252ad1be2c89b69c2b068fc378daa952ba7f163c4a11628f55a4df523b3ef91a4505050565b610b9e8282604051806020016040528060008152506115f9565b6000828152600260205260409020546001600160a01b031661128b5760405162461bcd60e51b815260206004820152602e60248201527f45524337323155524953746f726167653a2055524920736574206f66206e6f6e60448201526d32bc34b9ba32b73a103a37b5b2b760911b6064820152608401610568565b600082815260066020908152604090912082516112aa92840190611a58565b506040518281527ff8e1a15aba9398e019f0b49df1a4fde98ee17ae345cb5f6b5e2c27f5033e8ce79060200160405180910390a15050565b600a54341461133f5760405162461bcd60e51b815260206004820152602360248201527f486f706566756c6c792073656e64696e672074686520636f727265637420707260448201526269636560e81b6064820152608401610568565b6000811161139a5760405162461bcd60e51b815260206004820152602260248201527f4d616b652073757265207468652070726963652069736e2774206e6567617469604482015261766560f01b6064820152608401610568565b6040805160a081018252838152306020808301828152338486018181526060860188815260016080880181815260008c8152600b9097529890952096518755925193860180546001600160a01b039586166001600160a01b03199182161790915590516002870180549190951691161790925551600384015592516004909201805492151560ff1990931692909217909155611437919084611092565b604080513081523360208201529081018290526001606082015282907faf3679aa048f33d719e7f919c27adf518151bd48166ce2531710cfe40bc7bb869060800160405180910390a25050565b816001600160a01b0316836001600160a01b031614156114e65760405162461bcd60e51b815260206004820152601960248201527f4552433732313a20617070726f766520746f2063616c6c6572000000000000006044820152606401610568565b6001600160a01b03838116600081815260056020908152604080832094871680845294825291829020805460ff191686151590811790915591519182527f17307eab39ab6107e8899845ad3d59bd9653f200f220920489ca2b5937696c31910160405180910390a3505050565b61155e848484611092565b61156a8484848461162c565b610b8d5760405162461bcd60e51b81526004016105689061200c565b606061159182610f44565b60006115a860408051602081019091526000815290565b905060008151116115c857604051806020016040528060008152506109a2565b806115d28461172a565b6040516020016115e3929190611f98565b6040516020818303038152906040529392505050565b61160383836117c7565b611610600084848461162c565b6106095760405162461bcd60e51b81526004016105689061200c565b60006001600160a01b0384163b1561171f57604051630a85bd0160e11b81526001600160a01b0385169063150b7a029061167090339089908890889060040161205e565b6020604051808303816000875af19250505080156116ab575060408051601f3d908101601f191682019092526116a89181019061209b565b60015b611705573d8080156116d9576040519150601f19603f3d011682016040523d82523d6000602084013e6116de565b606091505b5080516116fd5760405162461bcd60e51b81526004016105689061200c565b805181602001fd5b6001600160e01b031916630a85bd0160e11b149050610db2565b506001949350505050565b6060600061173783611952565b600101905060008167ffffffffffffffff81111561175757611757611cd3565b6040519080825280601f01601f191660200182016040528015611781576020820181803683370190505b5090508181016020015b600019016f181899199a1a9b1b9c1cb0b131b232b360811b600a86061a8153600a85049450846117ba576117bf565b61178b565b509392505050565b6001600160a01b03821661181d5760405162461bcd60e51b815260206004820181905260248201527f4552433732313a206d696e7420746f20746865207a65726f20616464726573736044820152606401610568565b6000818152600260205260409020546001600160a01b0316156118825760405162461bcd60e51b815260206004820152601c60248201527f4552433732313a20746f6b656e20616c7265616479206d696e746564000000006044820152606401610568565b6000818152600260205260409020546001600160a01b0316156118e75760405162461bcd60e51b815260206004820152601c60248201527f4552433732313a20746f6b656e20616c7265616479206d696e746564000000006044820152606401610568565b6001600160a01b038216600081815260036020908152604080832080546001019055848352600290915280822080546001600160a01b0319168417905551839291907fddf252ad1be2c89b69c2b068fc378daa952ba7f163c4a11628f55a4df523b3ef908290a45050565b60008072184f03e93ff9f4daa797ed6e38ed64bf6a1f0160401b83106119915772184f03e93ff9f4daa797ed6e38ed64bf6a1f0160401b830492506040015b6d04ee2d6d415b85acef810000000083106119bd576d04ee2d6d415b85acef8100000000830492506020015b662386f26fc1000083106119db57662386f26fc10000830492506010015b6305f5e10083106119f3576305f5e100830492506008015b6127108310611a0757612710830492506004015b60648310611a19576064830492506002015b600a83106104345760010192915050565b6040805160a08101825260008082526020820181905291810182905260608101829052608081019190915290565b828054611a6490611eb1565b90600052602060002090601f016020900481019282611a865760008555611acc565b82601f10611a9f57805160ff1916838001178555611acc565b82800160010185558215611acc579182015b82811115611acc578251825591602001919060010190611ab1565b50611ad8929150611adc565b5090565b5b80821115611ad85760008155600101611add565b6001600160e01b031981168114610fa357600080fd5b600060208284031215611b1957600080fd5b81356109a281611af1565b60005b83811015611b3f578181015183820152602001611b27565b83811115610b8d5750506000910152565b60008151808452611b68816020860160208601611b24565b601f01601f19169290920160200192915050565b6020815260006109a26020830184611b50565b600060208284031215611ba157600080fd5b5035919050565b80356001600160a01b0381168114611bbf57600080fd5b919050565b60008060408385031215611bd757600080fd5b611be083611ba8565b946020939093013593505050565b600080600060608486031215611c0357600080fd5b611c0c84611ba8565b9250611c1a60208501611ba8565b9150604084013590509250925092565b805182526020808201516001600160a01b039081169184019190915260408083015190911690830152606080820151908301526080908101511515910152565b6020808252825182820181905260009190848201906040850190845b81811015611cac57611c99838551611c2a565b9284019260a09290920191600101611c86565b50909695505050505050565b600060208284031215611cca57600080fd5b6109a282611ba8565b634e487b7160e01b600052604160045260246000fd5b600067ffffffffffffffff80841115611d0457611d04611cd3565b604051601f8501601f19908116603f01168101908282118183101715611d2c57611d2c611cd3565b81604052809350858152868686011115611d4557600080fd5b858560208301376000602087830101525050509392505050565b60008060408385031215611d7257600080fd5b823567ffffffffffffffff811115611d8957600080fd5b8301601f81018513611d9a57600080fd5b611da985823560208401611ce9565b95602094909401359450505050565b60a081016104348284611c2a565b60008060408385031215611dd957600080fd5b611de283611ba8565b915060208301358015158114611df757600080fd5b809150509250929050565b60008060008060808587031215611e1857600080fd5b611e2185611ba8565b9350611e2f60208601611ba8565b925060408501359150606085013567ffffffffffffffff811115611e5257600080fd5b8501601f81018713611e6357600080fd5b611e7287823560208401611ce9565b91505092959194509250565b60008060408385031215611e9157600080fd5b611e9a83611ba8565b9150611ea860208401611ba8565b90509250929050565b600181811c90821680611ec557607f821691505b60208210811415611ee657634e487b7160e01b600052602260045260246000fd5b50919050565b6020808252602d908201527f4552433732313a2063616c6c6572206973206e6f7420746f6b656e206f776e6560408201526c1c881bdc88185c1c1c9bdd9959609a1b606082015260800190565b634e487b7160e01b600052601160045260246000fd5b60008219821115611f6257611f62611f39565b500190565b6000600019821415611f7b57611f7b611f39565b5060010190565b634e487b7160e01b600052603260045260246000fd5b60008351611faa818460208801611b24565b835190830190611fbe818360208801611b24565b01949350505050565b60208082526025908201527f4552433732313a207472616e736665722066726f6d20696e636f72726563742060408201526437bbb732b960d91b606082015260800190565b60208082526032908201527f4552433732313a207472616e7366657220746f206e6f6e20455243373231526560408201527131b2b4bb32b91034b6b83632b6b2b73a32b960711b606082015260800190565b6001600160a01b038581168252841660208201526040810183905260806060820181905260009061209190830184611b50565b9695505050505050565b6000602082840312156120ad57600080fd5b81516109a281611af156fea264697066735822122039bf93992c5a73c2c7607ec1a10f515415362dafb8023a35513f8449316109fa64736f6c634300080b0033",
  "linkReferences": {},
  "deployedLinkReferences": {}
}